:020000040800F2
:1000000030050020D5000008CD1300089B13000820
:1000100000000000000000000000000000000000E0
:10002000000000000000000000000000171400089D
:10003000000000000000000015140008191400085A
:10004000E7000008E7000008E7000008E7000008F4
:10005000E7000008E7000008E7000008E7000008E4
:10006000E7000008E7000008E700000809020008B0
:10007000E7000008E700000800000000E7000008B3
:1000800000000000E7000008000000000000000081
:10009000E700000800000000E7000008E700000893
:1000A000E7000008E7000008E7000008E700000894
:1000B000AD190008E7000008E7000008E7000008A5
:1000C0000348854600F08EF800480047F9190008FB
:1000D000300500200448804704480047FEE7FEE75B
:1000E000FEE7FEE7FEE7FEE791140008C100000806
:1000F00030B50B46014600202022012409E00D46C0
:10010000D5409D4205D31D469540491B2546954047
:1001100040191546521E002DF1DC30BDF0B51FB45C
:100120000646002082B005464024019100901BE065
:10013000019922460F46304600F042F8049A059B8A
:10014000801A994110D310461946224600F028F82B
:10015000361A8F410197224601200021009F00F0AE
:100160001FF838184D4100902046641E0028DFDC3F
:10017000019B00982946324607B0F0BDD2B201E09B
:100180000270401C491EFBD270470022F6E710B5F2
:1001900013460A4604461946FFF7F0FF204610BDF5
:1001A00010B5202A04DB0146203A9140002010BD02
:1001B000914020239C1A0346E3401943904010BD10
:1001C00010B5202A04DB0846203AD040002110BD9B
:1001D0000B46D340D0402024A21A91400843194630
:1001E00010BD0000064C0125064E05E0E36807CC73
:1001F0002B430C3C98471034B442F7D3FFF764FF0D
:100200000C1B00082C1B000810B5034800F069F80F
:10021000024800F066F810BDE8000020A0000020B1
:1002200030B5446C1C252C400125A540046C65604C
:10023000046863608368102B036803D099600068CA
:10024000C26030BD9A600068C16030BD704730B593
:10025000014620314A790023022A04D00422C263D5
:100260000B71012030BD026814680E25AC43146088
:1002700002681468640864001460446C1C22144012
:1002800001221546006CA54045604A7118460B7165
:1002900030BD70B50024014620314A79022A03D0CE
:1002A0000421C163012418E0026813680E25AB43E2
:1002B0001360026813685B085B001360436C1C22C8
:1002C0001340012215469D40036C5D604A71002277
:1002D0000A71816B002900D08847204670BDC06B31
:1002E0007047F0B4016C0D6801680C68466C1C2303
:1002F00004221E401746B7402F420ED067070CD588
:100300000C68A40602D40C6894430C60416C19403C
:100310008A40016C4A60016B1AE00227B74002462E
:100320002F402032002F17D0A70715D50C68A40640
:1003300005D40C680A25AC430C6001215171446C52
:1003400002211C40036CA140596000211171C16A57
:10035000002918D0F0BC08470827B7402F4212D018
:10036000240710D50C680E25AC430C60446C0121A9
:100370001C400B46A340046C6360C16351710021B3
:100380001171416BE4E7F0BC7047000070B50400E8
:100390003CD01F48256814212818FFF7A9FE8000CB
:1003A00060641C48206402212046203002464171CE
:1003B00029681948E3680140A06866691843236901
:1003C00033431843A3691843E3691843236A184366
:1003D000084328600121A0688903884210D00D4895
:1003E0008030836A656C1C210D400F26AE40B343FC
:1003F0008362656C63680D40816AAB400B43836226
:100400000020E06301215171107170BD012070BDA9
:10041000F8FFFDBF000002400F80FFFFF8B5044663
:100420008C46203001790025012909D0012606716A
:1004300041790027012905D0077102252846F8BD1A
:100440000220F8BD02214171E76320680168490874
:100450004900016061462046FFF7E2FE206B00285C
:100460002068016801D00E2205E00422914301605A
:10047000206801680A221143016020680168314345
:100480000160DBE7F8B500230124A2E027469F4086
:100490003A4070D04D68022D01D0122D14D1DD08E4
:1004A000AD002D1800952D6A5E07AC46F50E0F269F
:1004B000AE46AE406546B543AC460E697546AE40A5
:1004C00065462E43009D2E624D68012D05D0022DFC
:1004D00003D0112D01D0122D16D185680326AC460C
:1004E0005D00AE46AE406546B543AC46CE68754647
:1004F000AE4065462E43866046680D79BE43ED06E4
:10050000ED0F9D403543456006685F000325BD4003
:10051000AE46AE430D79B446AE07B60FBE40654653
:100520002E430660C6687546AE438D68BD403543B0
:10053000C5604D68ED004BD5294D6E6B26436E634B
:100540009E08284DB6007519AC46AD689E07360F5B
:100550000F27B740BD4305273F07B84201D1002709
:1005600015E0214FB84201D1012710E01F4FB842DA
:1005700002D102270BE02BE01D4FB84201D1032727
:1005800005E01C4FB84201D1052700E00627B7401F
:100590002F436546AF60184D2E684F689643FF03A2
:1005A00000D516432E606E684F689643BF0300D592
:1005B00016436E60AE684F689643FF0200D516433F
:1005C000AE60EE684F689643BF0200D51643EE60FA
:1005D0005B1C0A681546DD4000D057E7F8BD0000F7
:1005E00000100240000001400004005000080050CC
:1005F000000C0050001C005000040140002A01D0F3
:10060000816170478162704701480068704700004F
:100610000000002002480168491C0160704700008A
:100620000000002010B50848002401684022114352
:100630000160204600F00AF8002801D0012401E002
:1006400000F01CF8204610BD0020024070B50546A1
:1006500009487D210024C9000068FFF749FD00F02A
:1006600049FC002801D0012404E000222946501E44
:1006700000F01AF8204670BD040000200448416BC9
:10068000012211434163816B02041143816370476E
:1006900000100240C106C90E0120884001490860CF
:1006A0007047000000E100E010B500F091FE10BDC1
:1006B000F8B504460068614D810601D400057DD57A
:1006C0005E4E0027403EB06BC00004D4B06B3104D6
:1006D0000843B06301275A480168C90511D401686D
:1006E000821511430160FFF78FFF009005E0FFF7CF
:1006F0008BFF0099401A642844D851480068C0050F
:10070000F5D5316803200005626801401040884239
:1007100005D10323A0681B051840884208D0900328
:10072000800F032804D13068800301D50120F8BD73
:10073000286903210904084029D00A40824202D0D6
:100740002278920606D4A2680A4082421FD02088EE
:1007500000051CD528692A6988430121C9040A4378
:100760002A612A698A432A612861C0050FD5FFF7EB
:100770004BFF009008E0FFF747FF0099411A31480E
:10078000814201D90320F8BD28698005F3D561684D
:100790008803800F032805D1326800058243014099
:1007A0000A43326028690322616812041140084339
:1007B0002861002F06D0B16B012000E002E00007A5
:1007C0008143B1632078C00705D0E868E1688008FC
:1007D00080000843E8602078800705D5E8680C2190
:1007E000884321690843E8602078400706D5E86817
:1007F00003218902884361690843E8602078000783
:1008000006D5E868032109038843A1690843E86025
:100810002078400606D5E868012189068843216AC8
:100820000843E8602078000606D5E86803218904BB
:100830008843E1690843E8600020F8BD40100240A9
:100840000070004088130000F8B50E4605007DD00A
:1008500053480068C007C00FB0420AD25048016830
:1008600049084900314301600068C007C00FB04229
:1008700071D128784B4C800705D5E068F02188437A
:10088000A9680843E0602878C00752D06868022849
:1008900017D0032818D02168012818D0890500290D
:1008A00059DAE168890889000143E160FFF7ACFE8D
:1008B00069680746022912D003291CD0012926D0D5
:1008C00033E021688903EAE721688901E7E74907FE
:1008D000E5E7FFF799FEC11B3348814223D8E06862
:1008E0000007800F0228F4D123E0FFF78DFEC11B23
:1008F0002D48814217D8E0680007800F0328F4D103
:1009000017E0FFF781FEC11B274881420BD8E06842
:100910000007800F0128F4D10BE0FFF775FEC11B23
:100920002148814201D90320F8BDE0680007800F0B
:10093000F3D11B480168C907C90FB1420DD901683D
:100940004908490031430160006800E003E0C00746
:10095000C00FB04201D00120F8BD2878400706D56D
:10096000E068072109028843E9680843E0602878C5
:10097000000707D5E0680721C90288432969C90033
:100980000843E06000F036F8E168084A0906090FFC
:10099000515CC840064908600020FFF757FEF8BDCB
:1009A000002002400010024088130000E81A0008EE
:1009B00004000020044805490068C968044A490544
:1009C000490F515CC84070470400002000100240ED
:1009D000011B0008044805490068C968044A8904E5
:1009E000490F515CC84070470400002000100240CD
:1009F000011B000810B5184AD1680C2008400428D3
:100A00000BD0082810D00C2810D050680004410FDB
:100A10000120C003491C884010BD1068C00601D5E4
:100A20000E4810BD0E4810BD0E4810BD88020E4B7A
:100A3000000F185C0902D368890F491CDB0301D53C
:100A4000084A05E01268D20601D5044A00E0044ACB
:100A50005043FFF74DFB10BD0010024000093D0060
:100A60000024F40000127A00F81A0008FEB5050010
:100A70007ED0FE4CE7680C20E668074001200004A9
:100A800006402878C00747D0082F05D00C2F0AD180
:100A900001200004864206D1206880033CD56868A6
:100AA0000028E5D038E0012069680004814203D1C4
:100AB00021680143216011E0052301221B049204F7
:100AC0009942216802D111432160F1E781432160FD
:100AD00021680140009120689043206068680028E8
:100AE0000DD0FFF791FD009005E0FFF78DFD009917
:100AF000401A64287AD820688003F6D50CE0FFF706
:100B000083FD009005E0FFF77FFD0099401A6428FF
:100B1000F0D820688003F6D42878800755D50923BB
:100B2000E868042F0DD00C2F01D1002E09D0002829
:100B30003BD02168994301432160FFF765FD0646DC
:100B400027E02168490701D5002891D061681F225C
:100B5000120291432A69120211436160216899438C
:100B600001432160FFF746FFE16809060A0F00E034
:100B7000BBE1BF49895CC840BE4908600020FFF75F
:100B800065FD002872D120E0FFF73EFD801B0228A2
:100B9000B0D820684007F7D560681F210902884354
:100BA00029690902084360600FE02068400840009E
:100BB0002060FFF729FD064604E0FFF725FD801BB6
:100BC000022897D820684007F7D42878C0065FD558
:100BD000002F0CD0E869002849D02068FF2101319E
:100BE00008432060FFF710FD06462DE0E4E0206892
:100BF000800502D5E8690028A7D06068072149036D
:100C00008843696A084360606068298C0002000AB2
:100C1000090608436060686A410B0120C003491C53
:100C20008840E16809060A0F9149895CC8409149EA
:100C300008600020FFF70AFD002817D128E0FFF721
:100C4000E3FC801B0228A3D820688005F7D56068E4
:100C5000072149038843696A084360606068298CFA
:100C60000002000A09060843606011E023E12168E0
:100C7000FF20013081432160FFF7C6FC064604E0F7
:100C8000FFF7C2FC801B02289BD820688005F7D4A0
:100C90002878794E000724D568690028306910D07B
:100CA000012108433061FFF7AFFC009005E0FFF73A
:100CB000ABFC0099401A02287ED830698007F6D52F
:100CC0000FE0400840003061FFF79EFC009005E017
:100CD000FFF79AFC0099401A02286DD83069800706
:100CE000F6D42878400764D500200290A06BC0009D
:100CF00006D4A06B012109070843A06301200290DC
:100D00005E480168C90511D401688215114301606C
:100D1000FFF77AFC009005E0FFF776FC0099401A97
:100D2000642849D855480068C005F5D5FF20AA6851
:100D30000130824203D131690143316111E0012167
:100D40008902002A07D005231B029A4203D1326987
:100D50000A433261EFE73269824332613069884386
:100D60003061A86800280ED0FFF74EFC009006E026
:100D7000FFF74AFC0099411A414881421CD830696A
:100D80008005F5D50DE0FFF73FFC009006E0FFF78A
:100D90003BFC0099411A3A4881420DD830698005E0
:100DA000F5D40298002804D0A16B012000078143EC
:100DB000A1632878800600E07CE02ED53148A9693F
:100DC0004314002916D0A26801210A43A260626B75
:100DD0000A436263016A19430162FFF715FC064684
:100DE00004E0FFF711FC801B022863D8A06880078D
:100DF000F7D512E0A16849084900A160016A99434A
:100E00000162FFF701FC064604E0FFF7FDFB801BD3
:100E100002284FD8A0688007F7D4A86A002866D0B7
:100E20000C2F4DD0012636060228206805D0B0438D
:100E30002060FFF7E9FB05463EE0B0432060FFF786
:100E4000E3FB074604E0FFF7DFFBC01B022831D8B5
:100E500020688001F7D4296BE86AE2680843696B6F
:100E6000FD231B049A43114308430DE00010024088
:100E7000E81A000804000020401002400070004002
:100E80008813000000000140E060206830432060CB
:100E9000FFF7BAFB054604E0FFF7B6FB401B02284C
:100EA00008D820688001F7D521E0FFF7ADFB401B93
:100EB000022801D90320FEBD20688001F5D416E088
:100EC0000128F8D0E06801210904EA6A0140914252
:100ED0000BD10F2189042A6B0140914205D10321D6
:100EE00089050840696B884201D00120FEBD0020C1
:100EF000FEBD0000094910B5401E884201D90120FD
:100F000010BD074C60610321081F00F061FA00204A
:100F1000A06107202061002010BD0000FFFFFF003E
:100F200000E000E0704770B5416F0446856F0068CF
:100F3000826810261206002A14DA212912D181684B
:100F4000802291438160A06E002808D0FFF77FF9CE
:100F5000002804D0A06EFFF7C2F920281DD020463B
:100F600000F0D5FB20688168490614D5222D12D1E6
:100F70008168402291438160E06E002808D0FFF72D
:100F800066F9002804D0E06EFFF7A9F9202804D004
:100F9000204600F0ACFB002070BDE667032070BD6A
:100FA00070470000F8B502680446D069116893687C
:100FB00005072D0F5BD0DD07ED0FFF2621360E4014
:100FC0002E4367D0C60706D0CE0504D5012616628B
:100FD000E26F3243E267870702220426002F06DA17
:100FE000DF0704D027683A62E76F3743E7674707B0
:100FF00006D5DB0704D023681E62E36F1343E36763
:10100000020709D520220A402A4305D02368082276
:101010001A62E36F1343E367E26F002A2FD0800662
:1010200006D5880604D5216E002901D020468847C0
:10103000E06F21688968490601D4000724D520465D
:1010400000F055FB20688168490619D58168402267
:1010500091438160E06E002812D020498163E06EE8
:10106000FFF717F900280AD0E06E816B06E08506CD
:1010700010D58D060ED5216E1CE020468847F8BDA0
:101080002046FFF78DFFF8BD2046FFF789FF0020BF
:10109000E067F8BDC50208D55B0206D50120000552
:1010A00010622046FFF73EFFF8BD030605D50B068C
:1010B00003D5616E0029E0D1F8BD4006FCD5480695
:1010C000FAD51368204640218B43136020216167C5
:1010D0000021616600F058F9F8BD00001116000803
:1010E00010B5040003D0606F002802D007E0012093
:1010F00010BD002170200155204600F027F8242063
:10110000606720680168490849000160204600F0D6
:1011100007FB0128ECD0606A002802D0204600F0CE
:10112000E1F9206841680922D202914341602068B8
:1011300081682A229143816020680168012211435D
:101140000160204600F034FA10BD0000F0B587B011
:10115000064614216846FFF718F82C493068884283
:1011600051D12B48816B0122520411438163C16A22
:1011700001221143C162C06A0025104005900C2075
:10118000009002200190032003900427052002957F
:10119000694604970007FFF775F91F4C1D48A560C5
:1011A000E56081C4E56080272561A7602020A561F6
:1011B00060611948083CFFF7E9F8002801D0FFF703
:1011C00045F8F466A662154C124821461438206092
:1011D0000420606010200831A1C16561A561000292
:1011E000E56120622046FFF7D1F8002801D0FFF723
:1011F0002DF8B466002211461C20A662FFF754FAAF
:101200001C20FFF747FA07B0F0BD00000044004083
:101210000010024058000240A0000020E80000201A
:10122000F8B50446806F20284DD100290BD0002A44
:1012300009D00123A0681B03984206D12069002829
:1012400003D1C80701D00120F8BD25466035287CB0
:10125000012838D0012028745820616502530026E7
:10126000E6672220A067E06E002819D01749C16206
:10127000E16E17480863E16E16484863E06E134656
:101280008663676D21683A462431E06EFFF7C6F841
:10129000002805D01020E0672E7420206067D2E778
:1012A0002E7420680168FF2201321143016020681A
:1012B00081680122114381602068816840221143C6
:1012C00081600020F8BD0220F8BD00006D16000806
:1012D000AB1600082516000870477047F8B504469D
:1012E000406F202847D100290BD0002A09D00123C4
:1012F000A0681B03984206D12069002803D1C807C3
:1013000001D00120F8BD25466035287C012832D067
:101310000120287420464030E16402824282002687
:10132000E66721206067A06E002819D01349C162CA
:10133000A16E13480863A16E12484863A06E13465D
:1013400086632768E16C3A462832A06EFFF766F89C
:10135000002805D01020E0672E7420206067D0E7B9
:101360002168402008622E74206881688022114321
:1013700081600020F8BD0220F8BD0000B51600080D
:10138000E5160008251600080248017802221143DC
:1013900001707047880000207047FEE710B50A48CA
:1013A00008490160E1214902416000218160C1607A
:1013B00001618161C1610C22016242614162FFF7FA
:1013C0008FFE10BD00440040080000207047000060
:1013D0008307FF22DB0E9A408907090E99400028F7
:1013E0000BDA0007000F0838830808489B0018181C
:1013F000C36993430B43C3617047830804489B0050
:101400001B181868904308431860704700ED00E00F
:1014100000E400E07047704710B5FFF7FBF810BD1F
:1014200010B59CB038216846FEF7AFFE142117A80E
:10143000FEF7ABFE24210EA8FEF7A7FE13480168B5
:101440000322D2029143C214891801601020009037
:1014500001200790052000244003099008940A9475
:101460006846FFF703FB0F201790189419941A94FD
:1014700000211B9417A8FFF7E7F902200E901294A1
:101480000EA8FFF715F91CB010BD00000070004059
:1014900010480168821511430160C1680E4A11406D
:1014A000C16001680D4A1140016081684908490026
:1014B000816001680122920491430160C168FD22AC
:1014C00012049143C160002101610549C003886095
:1014D00070470000001002400C40FF88F6FFF6FE47
:1014E00000ED00E010B5818CC90707D001684A689B
:1014F00001235B049A43836A1A434A60818C8907FB
:1015000007D501684A6801231B049A43C36A1A433A
:101510004A60818C490707D501684A6801239B040A
:101520009A43036B1A434A60818C090707D5016807
:101530004A680123DB039A43436B1A434A60818C58
:10154000C90607D50268916801231B039943836B81
:1015500019439160818C890607D501688A68012347
:101560005B039A43C36B1A438A60818C490612D588
:1015700003685A6801210905046C8A4322435A60B2
:10158000026C8A4207D10268516803235B059943C4
:10159000436C19435160818C090607D501684A687C
:1015A0000123DB04806C9A4302434A6010BD0000B3
:1015B000F8B500260446C667FFF726F805462068FA
:1015C0000068124F000709D501212B46002249056A
:1015D0002046009700F0B8F900280DD12068006877
:1015E00040070BD501212B46002289052046009794
:1015F00000F0AAF9002801D00320F8BD2020606780
:10160000A067603426740020F8BD0000FFFFFF01D2
:1016100010B5806A0022014640314A834A82FFF7B2
:10162000BFFC10BD70B5846A606FA56F21688968C2
:1016300000260906002906DA212804D15220065383
:10164000204600F064F820688068400606D5222D08
:1016500004D15A200653204600F049F8E06F1021CB
:101660000843E0672046FFF79BFC70BD10B50146BC
:101670000968806A0968890614D400225A210A522E
:1016800001680A68FF2301339A430A6001688A6887
:10169000520852008A6001688A6840239A438A602F
:1016A00020218167FFF718FE10BD10B5806AFFF793
:1016B00014FE10BD10B501460968806A09688906E4
:1016C0000DD4002252210A5201688A6880239A436D
:1016D0008A600068016840221143016010BDFFF775
:1016E00053FE10BD10B5806AFFF756FE10BD0168AD
:1016F0000A68FF2321339A430A6001688A68520806
:1017000052008A60202181670021016670470168CC
:101710000A68C0239A430A6020214167704700008D
:10172000F8B504462669A268E76932436669102065
:1017300000253E432368324378491E68784F3E4077
:1017400016431E6023685A6803263603B243E668D0
:1017500032435A602368A2698B4201D0266A324321
:101760009E680B273F02BE4316439E606D4E236862
:101770006D4AB3420CD1D2689207920F06D0012A6B
:1017800038D0022A34D0032A20D11EE001201DE0E7
:10179000664EB3420AD1D2680C26324026D0042AC3
:1017A00028D0082A24D00C2A10D10EE08B420DD16B
:1017B000D66803229202164018D001229202B61A6D
:1017C00018D0B61A14D0964200D10820564A0126E5
:1017D000403A574FF6038B4236D100280CD00228EE
:1017E0000DD0042812D008281FD11CE00020EDE7FE
:1017F0000220EBE70420E9E7FFF7DCF808E01068D7
:10180000C00601D5384605E04A4803E0FFF7F2F884
:10181000002873D0626851005118814205D8110325
:10182000814202D303E03046F4E7012566E0010E71
:1018300006025008002330185941FEF76FFC0321BF
:101840000902411A3C4A55E0E169B14232D1030034
:1018500000F0B6F809070A0D06250606062B060055
:10186000E3E7FFF7A7F81CE0FFF7B4F819E010680A
:101870006168C00602D54808304A01E0304A48088D
:101880008018FEF735FC80B201462E4A103991428D
:10189000CBD8511C01400007400F08432CE0FFF754
:1018A000A9F8616840004A08EAE76168012248082F
:1018B0001204E5E7030000F083F809070A0D062685
:1018C0000606062C0600B0E7FFF774F81DE0FFF7E8
:1018D00081F81AE010686168C00602D54808C0198E
:1018E00002E014484A081018FEF702FC80B20146D4
:1018F000144A1039914298D82168C86000202066A7
:1019000060662846F8BDFFF775F861684A088018D8
:10191000EAE7616848088019E6E7000000480040EF
:10192000F369FFEF003801404010024000440040DE
:1019300000093D000024F400FFFC0F0000127A00B3
:101940000048E801EFFF0000FFB581B017460E46E2
:1019500004460A9D09E0681C07D0FEF755FE04996D
:10196000401AA8420CD8002D0AD02068C169304620
:10197000884318D00020B842EDD0002005B0F0BD5B
:1019800020680168FF22A1329143016020688168CC
:1019900049084900816020206067A067002060340A
:1019A00020740320EAE70120E5E7000010B50348B2
:1019B00000F080F80148FFF7F5FA10BD080000209C
:1019C00030B47446641E2578641CAB4200D21D46B8
:1019D000635D5B00E31830BC184702E008C8121FC3
:1019E00008C1002AFAD170477047002001E001C108
:1019F000121F002AFBD1704786B0FEF713FEFFF7D7
:101A00000FFD14216846FEF7C0FB284CE06A012553
:101A10002843E062E06A05272840A6153F070590A5
:101A2000002231463846FEF7E9FD0020029003907F
:101A30006946009601953846FEF724FD206B284341
:101A40002063206B00222840009011460B20FEF7F7
:101A50002BFE0B20FEF71EFEFFF7A0FC14480068CB
:101A60000168102211430160114C14228034A11C22
:101A70000F48FFF7D5FBFD252078C007FCD0627822
:101A8000A11C0B48FFF72AFC214608788007FCD5EB
:101A90000878284008700878400840000870142230
:101AA000A11C0348FFF7BCFBE6E700000010024062
:101AB0000800002010B50168CA69D243D2060ED4CE
:101AC00010220A62FFF72FFA0548006840681421C7
:101AD000091A04484170017801221143017010BDB8
:101AE000A00000208800002000000000000000008E
:101AF0000102030406070809030406080C10182055
:101B00003000000000010203040000002C1B00084C
:101B10000000002008000000DA190008341B00084B
:101B20000800002028050000EA1900080000000055
:041B30000000200091
:04000005080000C12E
:00000001FF
